:100000000C942A000C943C000C943C000C943C0092
:100010000C943C000C943C000C943C000C943C0070
:100020000C943C000C943C000C943C000C943C0060
:100030000C943C000C943C000C943C000C943C0050
:100040000C943C000C943C000C943C000C943C0040
:100050000C943C0011241FBECFE5D8E0DEBFCDBF1D
:1000600020E0A0E6B0E001C01D92A136B207E1F7A2
:100070000E943E000C941D010C94000041E063E0DE
:1000800082E00E9458000E94E400C0E0D0E0CE016F
:100090000E94EB002FE788E391E0215080409040E0
:1000A000E1F700C000002196C436D10581F7EDCFFD
:1000B000683008F07FC0423008F07EC0823031F1F5
:1000C00018F4813039F07AC08330E1F1843009F4DA
:1000D00055C074C041110DC09AB321E030E002C098
:1000E000220F331F6A95E2F7822F809589238ABBFE
:1000F0000AC02AB381E090E002C0880F991F6A9578
:10010000E2F7822B8ABB8ABB80E0089541110DC0C3
:1001100097B321E030E002C0220F331F6A95E2F767
:10012000822F8095892387BB0AC027B381E090E0A6
:1001300002C0880F991F6A95E2F7822B87BB87BBA5
:1001400080E0089541110DC094B321E030E002C079
:10015000220F331F6A95E2F7822F8095892384BB93
:100160000AC024B381E090E002C0880F991F6A950D
:10017000E2F7822B84BB84BB80E0089541110DC05F
:1001800091B321E030E002C0220F331F6A95E2F7FD
:10019000822F8095892381BB0AC021B381E090E042
:1001A00002C0880F991F6A95E2F7822B81BB81BB41
:1001B00080E0089582E0089583E0089581E0089545
:1001C0008091600083BF089580916000887C8A667A
:1001D000809360000895982F80E064E670E00E94AC
:1001E000F5006CBF0E94E000089597FB072E16F4FF
:1001F000009407D077FD09D00E94090107FC05D0C3
:100200003EF4909581959F4F0895709561957F4F2D
:100210000895AA1BBB1B51E107C0AA1FBB1FA6174D
:10022000B70710F0A61BB70B881F991F5A95A9F79F
:0E02300080959095BC01CD010895F894FFCF04
:00000001FF
